:020000040800F2
:1000000098CE00202903000825850008F56F000818
:1000100021850008751F0008E1D3000800000000DA
:10002000000000000000000000000000690200085D
:10003000032A000800000000C502000861B800089B
:100040004303000843030008430300084303000878
:100050004303000843030008052A0008430300087F
:10006000430300080F2A0008192A00084303000868
:100070004303000843030008430300084303000848
:100080004303000843030008430300084303000838
:10009000791F0008891F000843030008232A00086D
:1000A0004303000843030008430300084303000818
:1000B0004303000843030008430300084303000808
:1000C00043030008430300084303000843030008F8
:1000D000430300084303000843030008A9BD0008C8
:1000E00043030008430300084303000843030008D8
:1000F0004303000843030008430300080D200008E1
:1001000043030008430300084303000843030008B7
:1001100043030008430300084303000843030008A7
:1001200043030008892000089920000843030008C1
:100130004303000843030008430300084303000887
:10014000991F0008A91F000843030008298500081B
:10015000430300083129000841290008E9BE0008CE
:100160004303000843030008430300084303000857
:100170004303000843030008430300080000000095
:10018000430300084303000800F002F800F05CF8A5
:100190000AA090E8000C82448344AAF10107DA45E2
:1001A00001D100F051F8AFF2090EBAE80F0013F0D8
:1001B000010F18BFFB1A43F001031847B8430100B1
:1001C000D84301000A444FF0000C10F8013B13F033
:1001D000070408BF10F8014B1D1108BF10F8015BA0
:1001E000641E05D010F8016B641E01F8016BF9D193
:1001F00013F0080F1EBF10F8014BAD1C0C1B09D1EA
:100200006D1E58BF01F801CBFAD505E014F8016B5B
:1002100001F8016B6D1EF9D59142D6D370470000ED
:100220000023002400250026103A28BF78C1FBD8FF
:10023000520728BF30C148BF0B6070471FB513F08D
:10024000EBF91FBD10B510BD00F091FA1146FFF794
:10025000F5FF0FF04BFD00F0AFFA03B4FFF7F2FF2C
:1002600003BC00F0BFFA00002C4B19680868B0E826
:10027000F04F80F30988BFF36F8F4FF0000080F3D9
:10028000118870470000000008480068006880F38B
:1002900008884FF0000080F3148862B661B6BFF39F
:1002A0004F8FBFF36F8F00DF00BF00BF08ED00E08E
:1002B000DFF80C00016841F470010160704700BF75
:1002C00088ED00E0EFF30980BFF36F8F134B1A68DE
:1002D0001EF0100F08BF20ED108A20E9F04F1060CB
:1002E00009B44FF0500080F31188BFF34F8FBFF374
:1002F0006F8F11F05BF94FF0000080F3118809BC9B
:1003000019680868B0E8F04F1EF0100F08BFB0EC95
:10031000108A80F30988BFF36F8F7047DC010020DB
:10032000EFF30580704700000948804709480047FF
:10033000FEE7FEE7FEE7FEE7FEE7FEE7FEE7FEE795
:10034000FEE7FEE704480549054A064B70470000F2
:1003500029B9000889010008988E002098CE002055
:1003600098AE002098AE00209FED1A1AF5EE000A14
:1003700040EE010ABDEEE00AF5EEC00A10EE100AEA
:10038000F1EE10FA38BF401E00EE100A1349F7EEE6
:10039000001AB8EEC00A30EEC00ADFED0F0A20EEF8
:1003A000200AFCEEC00A10EE900AC0F3080000EE2E
:1003B000900A01EB8000F8EE600A90ED011A70EEF1
:1003C000600A90ED000A71EEE01A21EE800A00EE5C
:1003D000810A704783F9223E00000044A03C0108D6
:1003E000DFED190AB5EEC00A60EE200ABDEEE01A94
:1003F00011EE100AF1EE10FA38BF401E00EE100A9E
:100400001349F7EE001AB8EEC00A30EEC00ADFED6D
:100410000F0A60EE200ABCEEE00A10EE100AC0F3EC
:10042000080000EE100A01EB8000B8EE400A90EDE3
:10043000011A70EEC00A90ED000A71EEE01A21EE8A
:10044000800A00EE810A704783F9223E00000044D2
:10045000A03C010853EA020C00F069802DE9F04B42
:100460004FF00006002B1FBFB3FA83F503FA05F423
:1004700024FA05F65E4012BF1643B2FA82F502FA7C
:1004800005F4C5F120051EBF22FA05FC44EA0C0460
:10049000203556EA044C4FEA144418BF641C4FF050
:1004A00000084FF00009904271EB030C39D300298A
:1004B00019BFB1FA81F701FA07F6B0FA80F700FA2E
:1004C00007F6C7F120071EBF20FA07FC46EA0C0614
:1004D0002037B6FBF4FCA7EB0507103F07F01F0B16
:1004E000CBF120060CFA0BFB2CFA06F644BFB34600
:1004F0000026202FA4BF5E464FF0000B5BEA060CDF
:1005000008BF4FF0010B19EB0B09ABFB027C48EB6A
:100510000608C01B06FB02CC0BFB03CC71EB0C01E5
:10052000C1E70B46024641464846BDE8F08B13B58D
:100530004FF000004FF00001AFF30080BDE81C4019
:10054000704710B5431C02E010F8011B71B1810720
:10055000FAD14FF0013202C88C1A8C4314EAC2114E
:10056000F9D0C01A0A0603D0C01E10BDC01A10BDB3
:100570000A0401D0801E10BD0902FCD0401E10BD2F
:10058000032A40F2308010F0030C00F0158011F8BF
:10059000013BBCF1020F624498BF11F801CB00F897
:1005A000013B38BF11F8013BA2F1040298BF00F8EB
:1005B00001CB38BF00F8013B11F0030300F02580A8
:1005C000083AC0F0088051F8043B083A51F804CBCF
:1005D000A0E80810F5E7121D5CBF51F8043B40F895
:1005E000043BAFF30080D20724BF11F8013B11F8A0
:1005F00001CB48BF11F8012B24BF00F8013B00F8E4
:1006000001CB48BF00F8012B704710B5203AC0F06D
:100610000B80B1E81850203AA0E81850B1E8185003
:10062000A0E81850BFF4F5AF5FEA027C24BFB1E840
:100630001850A0E8185044BF18C918C0BDE81040B1
:100640005FEA827C24BF51F8043B40F8043B08BFBA
:100650007047D20728BF31F8023B48BF11F8012B81
:1006600028BF20F8023B48BF00F8012B704702F07A
:10067000FF0343EA032242EA024200F002B84FF0CD
:1006800000020429C0F0128010F0030C00F01B805F
:10069000CCF1040CBCF1020F18BF00F8012BA8BF6D
:1006A00020F8022BA1EB0C0100F00DB85FEAC17C31
:1006B00024BF00F8012B00F8012B48BF00F8012BE4
:1006C00070474FF0000200B5134694469646203915
:1006D00022BFA0E80C50A0E80C50B1F12001BFF4FB
:1006E000F7AF090728BFA0E80C5048BF0CC05DF861
:1006F00004EB890028BF40F8042B08BF704748BFAF
:1007000020F8022B11F0804F18BF00F8012B704722
:1007100070477047704710B500F00CF8006810BDC6
:1007200010B5044600F006F8046010BD004870479C
:10073000348E002000487047348E00201FB584B0EE
:1007400000200A9C06AB04AA02A90094AFF3008023
:1007500018B1DDE9020108B010BD0348204000F0E7
:1007600039F800200146F6E70000207C7047754606
:10077000FFF7DCFFAE4605006946534620F0070050
:10078000854618B020B5FFF7DDFDBDE820404FF0ED
:1007900000064FF000074FF000084FF0000B21F06B
:1007A0000701AC46ACE8C009ACE8C009ACE8C00938
:1007B000ACE8C0098D46704710B50446AFF3008021
:1007C0002046BDE81040FFF748BD002801D000F0EA
:1007D00009B8704710B500F025F8BDE81040FFF7E4
:1007E000F4BF000001491820ABBEFEE7260002005E
:1007F00070B505460C460A2000E06D1C00F068F854
:1008000035B128780028F8D102E0641C00F060F8C7
:1008100014B120780028F8D1BDE870400A2000F01B
:1008200057B8000010B5022803D0410103D50DA12F
:1008300012E0002010BD010101D50FA10CE0C100A4
:1008400001D511A108E0810001D512A104E040000A
:1008500001D513A100E0002115A0FFF7C9FF012079
:1008600010BD0000496E76616C6964204F7065723E
:100870006174696F6E0000004469766964652042A6
:1008800079205A65726F00004F766572666C6F77DB
:1008900000000000556E646572666C6F77000000A2
:1008A000496E657861637420526573756C740000DD
:1008B0005349474650453A2041726974686D6574E2
:1008C000696320657863657074696F6E3A20000013
:1008D00008B569468DF800000320ABBE08BD0000D6
:1008E0004A494A6822F440324A604A6843681A43D7
:1008F0004A6001684A6822F480724A6001684A6866
:10090000036942EA03224A6001684A6822F04072A1
:100910004A6001684A6883681A434A6001688A68C5
:1009200022F400628A6001688A68C3681A438A6098
:10093000816A6FF07062D14214D001688A6822F037
:1009400070628A6001688A68836A1A438A600168F3
:100950008A6822F040528A6001688A68C36A1A4332
:100960008A6009E001688A6822F070628A60016822
:100970008A6822F040528A6001688A6822F0020286
:100980008A6001688A68037E42EA43028A6090F8BE
:10099000201089B101684A6842F400624A60016827
:1009A0004A6822F460424A6001684A68436A5B1EF2
:1009B00042EA43324A6004E001684A6822F4006275
:1009C0004A600168CA6A22F47002CA620168CA6A8F
:1009D000838B5B1E42EA0352CA6201688A6822F472
:1009E00000728A6001688A6890F8303042EA4322D7
:1009F0008A6001688A6822F480628A6001688A6875
:100A0000406942EA8020886070470000002301406E
:100A100030B589B0044600200690079008900390F6
:100A2000049005900090019002909FED4E0A84ED95
:100A3000090A9FED4C0A84ED3E0A9FED4A0A84EDB7
:100A4000730A9FED480A84EDA80AFF2184F8781301
:100A500084F8EC13012184F8601484F8D414002184
:100A600084F8D81084F8AC1184F8801284F85413F8
:100A70000EF028FE60600EF023FD20603A499FEDE5
:100A80003B0A04F254500EF0F5FB39499FED370A4A
:100A900004F264500EF0EEFB00255EE028460EF0F6
:100AA00087FD05EB4501C1EB451204F5567141F890
:100AB0002200291DC8B20EF07BFD3521694304F1E7
:100AC000080242F821003521694302EB810101F15E
:100AD0004000DFED240A9FED230A06AA012107F05A
:100AE0000DFF3521694304F1080202EB810101F198
:100AF0008800DFED1C0A9FED1B0A03AA002107F006
:100B0000FDFE05EB4501C1EB451204F5567101EB05
:100B1000820101F12C00DFED130A9FED120A6A46F3
:100B2000012107F0EBFEB0EE000A05EB4500C0EB3B
:100B3000451104F5567000EB810080ED090AB8EE0E
:100B4000000A05EB4500C0EB451104F5567000EBBB
:100B5000810080ED0A0A681CC5B2042D9EDB09B035
:100B600030BD000000000000643901086F12033B33
:100B7000683901080146002033E000EB4002C2EB77
:100B8000401301F5567252F82320B2F9022000EE0C
:100B9000102AB8EEC00ADFED140A20EE200A00EB9E
:100BA0004002C2EB401301F5567202EB830282ED64
:100BB000060A3522424301F1080353F82220B2F914
:100BC000022000EE102AB8EEC00ADFED070A20EE80
:100BD000200A3522424303EB820282ED0D0A421CB9
:100BE000D0B20428C9DB70470A01DA3970B52DED9F
:100BF000088B04469FEDFE0AFFF7F2FB04F58060C8
:100C0000D0ED4A0A04F5A56090ED021A41EE400AC3
:100C100010EE905A284612F049FC41EC190B9FED5A
:100C2000F40AFFF7A1FB04F5A560D0ED010A90EDF1
:100C3000021A41EE400A10EE905A284612F036FC95
:100C400041EC1A0BB0EE491AF0EE691AB0EE4A0AFE
:100C5000F0EE6A0A0CF0F8FDB0EE408AF0EE608A21
:100C600051EC180B11F0BEFA60639FEDE10AFFF73B
:100C7000B7FB04F58060D0ED4A0A04F5A56090ED5D
:100C8000021A41EE000A10EE905A284612F00EFCAD
:100C900041EC190B9FEDD60AFFF766FB04F5A56042
:100CA000D0ED010A90ED021A41EE400A10EE905A82
:100CB000284612F0FBFB41EC1A0BB0EE491AF0EE9D
:100CC000691AB0EE4A0AF0EE6A0A0CF0BDFDB0EE09
:100CD000408AF0EE608A51EC180B11F083FAC4F8E8
:100CE00008019FEDC30AFFF77BFB04F58060D0EDA0
:100CF0004A0A04F5A56090ED021A41EE000A10EED2
:100D0000905A284612F0D2FB41EC190B9FEDB80A1D
:100D1000FFF72AFB04F5A560D0ED010A90ED021A59
:100D200041EE000A10EE905A284612F0BFFB41EC4B
:100D30001A0BB0EE491AF0EE691AB0EE4A0AF0EE5C
:100D40006A0A0CF081FDB0EE408AF0EE608A51EC48
:100D5000180B11F047FAC4F8DC019FEDA50AFFF764
:100D60003FFB04F58060D0ED4A0A04F5A56090EDE4
:100D7000021A41EE400A10EE905A284612F096FBF5
:100D800041EC190B9FED9A0AFFF7EEFA04F5A56006
:100D9000D0ED010A90ED021A41EE000A10EE905AD1
:100DA000284612F083FB41EC1A0BB0EE491AF0EE24
:100DB000691AB0EE4A0AF0EE6A0A0CF045FDB0EE90
:100DC000408AF0EE608A51EC180B11F00BFAC4F86F
:100DD000B0029FED870AFFF7C7FA04F5A560D0EDD2
:100DE000020A20EE200A10EE105A284612F05EFB8E
:100DF00041EC1B0B9FED7F0B53EC102B11F08CFE85
:100E000041EC190B04F5A56090ED010A10EE101AE3
:100E1000084612F04BFB41EC1A0B53EC192B12F065
:100E200043F841EC180B11F0DDF940F23451085150
:100E30009FED6F0AFFF7D4FA04F5A560D0ED020A22
:100E400020EE200A10EE105A284612F02FFB41EC3B
:100E50001B0B9FED680B53EC102B11F05DFE41EC6A
:100E6000190B04F5806090ED4A0A10EE101A08463E
:100E700012F01CFB41EC1A0B53EC192B12F014F876
:100E800041EC180B11F0AEF9C4F8380504F5A56073
:100E9000D0ED030A60EEA00A90ED041AD0ED041A1A
:100EA00041EE210AB0EE600A04F55D700DF07CFAA7
:100EB000D4EDDD0A94F9780300EE100AB8EEC00A0A
:100EC00020EE800A84EDDD0A9FED490AFFF74CFA17
:100ED00004F5A560D0ED020A20EE200A10EE105AAB
:100EE000284612F0E3FA41EC1B0B9FED420B53EC4A
:100EF000102B11F011FE41EC190B04F5A56090EDDB
:100F0000010A10EE101A084612F0D0FA41EC1A0B42
:100F100053EC192B11F0C8FF41EC180B11F062F9DA
:100F2000C4F83C059FED320AFFF75AFA04F5A560B4
:100F3000D0ED020A20EE200A10EE105A284612F0D8
:100F4000B5FA41EC1B0B9FED2B0B53EC102B11F062
:100F5000E3FD41EC190B04F5806090ED4A0A10EEB8
:100F6000101A084612F0A2FA41EC1A0B53EC192B96
:100F700011F09AFA41EC180B11F034F9C4F840055D
:100F800004F5A560D0ED050A60EEA00A90ED061A02
:100F9000D0ED061A41EE210AB0EE600A04F57A702F
:100FA0000DF002FAD4EDFA0A94F9EC0300EE100AFF
:100FB000B8EEC00A20EE800A84EDFA0A9FED0C0A12
:100FC000FFF7D2F904F5A560D0ED020A20EE200A61
:100FD00010EE105A284612F069FA41EC1B0B9FEDF7
:100FE000050B53EC102B11F097FD41EC190B05E0AC
:100FF000DC0F493F894160E5D022CB3F04F5A56075
:1010000090ED010A10EE101A084612F04FFA41EC6A
:101010001A0B53EC192B11F047FA41EC180B11F095
:10102000E1F8C4F844051FED0E0AFFF7D9F904F5FD
:10103000A560D0ED020A20EE200A10EE105A2846D4
:1010400012F034FA41EC1B0B1FED160B53EC102B76
:1010500011F062FD41EC190B04F5806090ED4A0A35
:1010600010EE101A084612F021FA41EC1A0B53EC5C
:10107000192B11F019FA41EC180B11F0B3F8C4F860
:10108000480504F5A560D0ED070A60EEA00A90EDD2
:10109000081AD0ED081A41EE210AB0EE600ACC38E9
:1010A0000DF082F904F55670D0ED410A94F9600410
:1010B00000EE100AB8EEC00A20EE800A04F5567061
:1010C00080ED410A1FED360AFFF74EF904F5A560E1
:1010D000D0ED020A20EE200A10EE105A284612F037
:1010E000E5F941EC1B0B1FED3D0B53EC102B11F000
:1010F00013FD41EC190B04F5A56090ED010A10EE0B
:10110000101A084612F0D2F941EC1A0B53EC192BC5
:1011100011F0CAF941EC180B11F064F8C4F84C0551
:101120001FED4D0AFFF75CF904F5A560D0ED020A4A
:1011300020EE200A10EE105A284612F0B7F941ECC2
:101140001B0B1FED540B53EC102B11F0E5FC41EC85
:10115000190B04F5806090ED4A0A10EE101A08464B
:1011600012F0A4F941EC1A0B53EC192B11F09CFE70
:1011700041EC180B11F036F8C4F8500504F5A560E1
:10118000D0ED090A60EEA00A90ED0A1AD0ED0A1A15
:1011900041EE210AB0EE600A58380DF005F904F569
:1011A0005670D0ED5E0A94F9D40400EE100AB8EE41
:1011B000C00A20EE800A04F5567080ED5E0ABDEC90
:1011C000088B70BD10B501460020E1E03522424396
:1011D00001F1080303EB820292ED090A3522424332
:1011E00003EB8202D2ED0A0A30EE600ADFED6A0AF2
:1011F000B4EEE00AF1EE10FA07DD01243522424395
:1012000003EB820282F8D04027E03522424301F10D
:10121000080303EB820292ED090A3522424303EBF5
:101220008202D2ED0A0A30EE600ADFED5C0AB4EE0B
:10123000E00AF1EE10FA07D2FF243522424303EB15
:10124000820282F8D04008E000243522424301F1B6
:10125000080303EB820282F8D0403522424301F1B9
:10126000080303EB820292F8D020012A26D135220E
:10127000424303EB820292ED090ADFED490A30EEA8
:10128000600A3522424303EB820282ED080A00EB3A
:101290004002C2EB401301F5567202EB830292ED5D
:1012A000070AB1EE400A00EB4002C2EB401301F521
:1012B000567202EB830282ED050A59E03522424361
:1012C00001F1080303EB820292F9D020521C32BBD9
:1012D0003522424303EB820292ED090ADFED300A28
:1012E00030EE200A3522424303EB820282ED080AE7
:1012F00000EB4002C2EB401301F5567202EB830291
:1013000092ED070AB1EE400A00EB4002C2EB401337
:1013100001F5567202EB830282ED050A28E03522C0
:10132000424301F1080303EB820292F8D020FAB99C
:101330003522424303EB820292ED090A35224243F1
:1013400003EB820282ED080A00EB4002C2EB40137D
:1013500001F5567202EB830292ED070A00EB4002A0
:10136000C2EB401301F5567202EB830282ED050ACF
:101370003522424301F1080303EB820292ED080A91
:101380003522424303EB820282ED0A0A421CD0B2AC
:101390000428FFF61BAF10BD00003443000034C327
:1013A0000000B4430146002093E03522424301F19E
:1013B000080353F82220128800EE102AB8EE400AE3
:1013C000DFED460A80EE201A9FED450A21EE000A65
:1013D0003522424303EB820282ED050A3522424365
:1013E00003EB820292ED050A3522424303EB8202AF
:1013F000D2ED060A30EE600ADFED3A0AB4EEE00AFA
:10140000F1EE10FA10DD3522424303EB820292ED39
:101410000E0AF7EE000A30EE600A3522424303EB73
:10142000820282ED0E0A26E03522424301F10803D2
:1014300003EB820292ED050A3522424303EB82025E
:10144000D2ED060A30EE600ADFED270AB4EEE00ABC
:10145000F1EE10FA0FD23522424303EB820292EDF5
:101460000E0AF7EE000A30EE200A3522424303EB63
:10147000820282ED0E0A3522424301F1080303EB9A
:10148000820292ED050A3522424303EB8202D2ED3D
:101490000E0A9FED131A00EE810A3522424303EB38
:1014A0008202D2ED070A30EE200A3522424303EBD6
:1014B000820282ED0C0A3522424303EB820292ED56
:1014C000050A3522424303EB820282ED060A421CE2
:1014D000D0B20428FFF669AF704700000000004654
:1014E0000000B44300003443000034C30146002030
:1014F00070E03522424301F1080303EB820292EDD2
:101500000A0A3522424303EB8202D2ED0B0A30EE87
:10151000600ADFED320AB4EEE00AF1EE10FA10DDF7
:101520003522424303EB820292ED0F0AF7EE000AE6
:1015300030EE600A3522424303EB820282ED0F0A4D
:1015400026E03522424301F1080303EB820292EDCB
:101550000A0A3522424303EB8202D2ED0B0A30EE37
:10156000600ADFED1F0AB4EEE00AF1EE10FA0FD2C6
:101570003522424303EB820292ED0F0AF7EE000A96
:1015800030EE200A3522424303EB820282ED0F0A3D
:101590003522424301F1080303EB820292ED0B0A6C
:1015A0003522424303EB8202D2ED0F0A9FED0D1A62
:1015B00000EE810A3522424303EB8202D2ED070A94
:1015C00030EE200A3522424303EB820282ED090A03
:1015D000421CD0B204288CDB70470000000034436A
:1015E000000034C30000B44370B52DED028B0446F7
:1015F0006068B0F902000A2805DC6068B0F90200F2
:1016000010F10A0F03DA6068B0F9025000E000251B
:101610006068B0F900000A2805DC6068B0F90000D5
:1016200010F10A0F03DA6068B0F9006000E00026EC
:1016300000EE105AB8EEC00ADFED2F0A20EE208A25
:1016400000EE106AB8EEC00ADFED2C0A60EE208AC8
:10165000B0EE480A04F254500DF0E1FDB0EE680A15
:1016600004F264500DF0DBFD9FED250AB4EEC08A54
:10167000F1EE10FA0CD29FED230AB4EEC08AF1EE1F
:1016800010FA05DD9FED200A04F5A56080ED0C0A37
:101690009FED1E0AF4EEC08AF1EE10FA0CD29FED17
:1016A0001C0AF4EEC08AF1EE10FA05DD9FED160A71
:1016B00004F5A56080ED100A04F5A56090ED0C0A14
:1016C00004F5806080ED4A0A04F5A56090ED100AEB
:1016D00080ED010A6068B0F9040000EE100AB8EE6F
:1016E000C00ADFED0C0A20EE200A04F5A56080EDAB
:1016F000020ABDEC028B70BDA69BC43B0AD7A3BBFC
:1017000090C2753D90C275BD00000000CCCC4C3D30
:10171000CCCC4CBD0AD723BC10B52DED028BB0EE5E
:10172000408AB0EE480A0BF08BFEBDEC028B10BD78
:1017300010B52DED028BB0EE408AF0EE608AF0EE2F
:10174000680AB0EE480A0CF07FF9BDEC028B10BDC0
:1017500010B52DED028BB0EE408AB0EE480AFEF7D0
:1017600003FEBDEC028B10BDF0EE400AF5EEC00AA0
:10177000F1EE10FA02DDB0EE600A7047B1EE600AD9
:10178000FBE7000018B19FED020A80ED000A7047E8
:101790000000000018B1B3EE060A80ED000A7047A1
:1017A00070B52DED0C8B84B006460C4615469FEDAA
:1017B000990AF0EE408A9FED970AB0EE409A9FEDAD
:1017C000950AF0EE40BA9FED930AF0EE409A9FED35
:1017D000910AB0EE40AA0EB104B11DB904B0BDEC3F
:1017E0000C8B70BD8C48FFF7CDFF8C48FFF7D2FF04
:1017F0008A48D0ED000A9FED8A1A60EE810AB0EEA9
:10180000600A00F02DF9F0EE408A28EEA80AF0EE0A
:10181000408A8248D0ED000AB0EE001A60EE810ADC
:101820009FED7F1A60EE810AB0EE600A00F018F9B1
:10183000B0EE409A29EE090AB0EE409ADFED790A3F
:10184000B7EE000A00EEA80ADFED770A00EEC90A3B
:10185000DFED760A20EE200A754880ED000A6E481A
:1018600090ED000ADFED730A80EE201AB7EE000A51
:1018700031EE000A20EE000A6D48D0ED000A80EE3D
:10188000801A6D4880ED001A94ED000AB5EEC00A8A
:10189000F1EE10FA0DD194ED010AB5EEC00AF1EEA9
:1018A00010FA06D194ED020AB5EEC00AF1EE10FA74
:1018B00046D09FED580AB0EE408A00200190029079
:1018C0000390D4ED000A60EEA00A94ED011AD4ED65
:1018D000011A41EE210A94ED021AD4ED021A41EEEA
:1018E000210AB0EE600A00F0A9F8B0EE408A94ED4B
:1018F000000A20EE080A8DED010A94ED010A20EE9F
:10190000080A8DED020A94ED020A20EE080A8DED18
:10191000030ADDED010AF1EE600AB0EE600AFFF79E
:10192000FBFEF0EE409A9DED031AF0EE410A9DEDAC
:10193000021AB0EE410AFFF7FBFEB0EE40AA07E044
:101940009FED340AF0EE409A9FED320AB0EE40AAC5
:1019500095ED000AB5EEC00AF1EE10FA0DD195ED45
:10196000010AB5EEC00AF1EE10FA06D195ED020AB1
:10197000B5EEC00AF1EE10FA3CD0B0EE690A00F004
:101980006FF8B0EE408AB0EE690AFFF7E1FEB0EE04
:1019900040DAB0EE4A0A00F063F8F0EE40AAB0EE8A
:1019A0004A0AFFF7D5FEB0EE40BA28EE2A0AD5ED76
:1019B000010A20EE200AD5ED000A0DEE200A68EE9D
:1019C0000B0A95ED021A00EE810AB0EE40CA95EDC1
:1019D000010A20EE0B0AD5ED020A0AEEE00AF0EE4B
:1019E00040CAF0EE6C0AB0EE4C0AFFF7A1FEF0EE32
:1019F00040BA03E09FED070AF0EE40BAB0EE4A1A93
:101A0000F0EE690AB0EE6B0A30460CF017FC00BF2E
:101A1000E4E60000000000005C02002060020020FC
:101A200035FA8E3CC1BFAD3B9DF8C5362F7C1C41BD
:101A300064020020506CC24A6802002010B52DEDEF
:101A4000028BB0EE408AB0EE480A0CF053F9B7EEC4
:101A5000001AC1EE000AB0EE600ABDEC028B10BDA8
:101A600010B52DED028BB0EE408AB0EE480AFEF7BD
:101A7000B7FCBDEC028B10BD2DE9F0412DED028BC2
:101A80009AB00546B0EE408A0E46174698460020AA
:101A90001790189019901490159016904DB146B16A
:101AA0003FB1B8F1000F04D0B5EEC08AF1EE10FAE4
:101AB00005D100201AB0BDEC028BBDE8F08196ED97
:101AC000000A8DED170A96ED010A8DED180A96EDC4
:101AD000020A8DED190A97ED000A8DED140A97EDB3
:101AE000010A8DED150A97ED020A8DED160A17AA67
:101AF00014A928460CF0D6F9402104A8FEF7E1FD10
:101B000000200090019002900390002417A904A8DF
:101B10000FF07EF900BF30E004A800EB041090ED58
:101B2000000AD5ED000A20EE200A04A800EB0410FC
:101B3000D0ED010A95ED011A00EE810A04A800EB30
:101B40000410D0ED020A95ED021A00EE810A04A8F5
:101B500000EB0410D0ED030A95ED031A00EE810AA4
:101B600020EE080AF0EE000A80EE201A684600EB2C
:101B7000840080ED001A601CC4B2042CCCDB00246D
:101B800010E005EB840090ED000A684600EB84004D
:101B9000D0ED000A30EE200A05EB840080ED000A4B
:101BA000601CC4B2042CECDB28460EF02FFE012092
:101BB00080E7000010B501221021024802F0D6FB98
:101BC00010BD00000000024010B5002210210248A4
:101BD00002F0CCFB10BD0000000002407047000086
:101BE00010B501221146024802F0C0FB10BD0000F2
:101BF0000004024010B500220121024802F0B6FBA9
:101C000010BD00000004024010B543781B021BB257
:101C10000478234300EE103AB8EEC01A1C4BD3ED03
:101C2000001A21EE211A81ED001AC3781B021BB2A3
:101C30008478234300EE103AB8EEC01A144BD3ED6B
:101C4000001A21EE211A81ED011A43791B021BB201
:101C50000479234300EE103AB8EEC01A0C4BD3EDD2
:101C6000001A21EE211A81ED021A037A1B04C479AD
:101C700043EA04238479234300EE903AB8EE601AD5
:101C8000DFED041A21EE211A82ED001A10BD0000CA
:101C9000A001002000401C42704710B504462046B9
:101CA0000EF06CF810BD10B5044620460DF076F924
:101CB00010BD00004278120212B203781A4300EEFF
:101CC000102AF8EEC00A144A92ED001A60EE810A5A
:101CD000C1ED000AC278120212B283781A4300EEF4
:101CE000102AF8EEC00A0C4A92ED001A60EE810A42
:101CF000C1ED010A4279120212B203791A4300EED1
:101D0000102AF8EEC00A044A92ED001A60EE810A29
:101D1000C1ED020A70470000A401002010B50024A4
:101D2000FFF75CFFFFF7B8FF0CF0F6FB10B144F0D3
:101D3000800402E00CF056FB04430CF0E5FD10B10A
:101D400044F0400402E00CF065FD0443204610BD61
:101D50002DE9FC4105460E461746002000900190F3
:101D6000FFF732FF922000F0D1F8062269461220D8
:101D700000F0ACF8FFF71EFF9DF80100000200B272
:101D80009DF8001040EA010400EE104AB8EEC00AC7
:101D90004C48D0ED000A20EE200A86ED000A9DF89E
:101DA0000300000200B29DF8021040EA010400EEB8
:101DB000104AB8EEC00A4348D0ED000A20EE200ACF
:101DC00086ED010A9DF80500000200B29DF804109E
:101DD00040EA010400EE104AB8EEC00A3948D0EDDE
:101DE000000A20EE200A86ED020AFFF703FF082210
:101DF0006946002000F06AF8FFF7F2FE9DF8000047
:101E00000F2838D19DF80300000200B29DF802109F
:101E100040EA010400EE104AB8EEC00A2A48D0EDAC
:101E2000000A20EE200A85ED000A9DF80500000258
:101E300000B29DF8041040EA010400EE104AB8EE2A
:101E4000C00A2148D0ED000A20EE200A85ED010AE3
:101E50009DF80700000200B29DF8061040EA010458
:101E600000EE104AB8EEC00A1748D0ED000A20EE86
:101E7000200A85ED020AFFF7A7FEA22000F046F82F
:101E800002226946222000F021F8FFF793FE9DF818
:101E90000000C0009DF8011040EA6114B4F5806FA5
:101EA00002DBA4F5006004B200EE104AF8EEC00AAE
:101EB000B4EE001AB3EE070A00EE810A87ED000ABD
:101EC000BDE8FC81A0010020A401002070B50646F9
:101ED0000C46154646F0800000F018F806E0552044
:101EE00000F014F82070641C681EC5B2002DF6D1F5
:101EF00070BD70B504460D4644F0800000F006F851
:101F0000552000F003F8287070BD000001B582B0C4
:101F10004FF47A70012301AA02A90090024804F04C
:101F200041F99DF804000EBD800B002010B502465B
:101F30001378DB00547843EA6410B0F5806F02DB5D
:101F4000A0F5006318B200EE100AF8EEC00AB4EE75
:101F5000001AB3EE070A00EE810A81ED000A10BDF7
:101F600070B505460C462846FFF7D0FF2046FFF720
:101F7000CDFF70BD00BFFEE710B5024801F087FA43
:101F800010BD0000A409002010B5024801F07FFA3E
:101F900010BD0000A409002010B5024801F077FA36
:101FA00010BD0000CC09002010B5024801F06FFA06
:101FB00010BD0000CC09002008B54FF4E0600C49CA
:101FC000086000208860C860082008610020094976
:101FD000087048708870C870087148718871C8713D
:101FE0006B460A460249044801F08AF808BD000021
:101FF0008C190020B8000020A409002010B5024868
:10200000FEF706FD10BD0000602600201B4840685A
:1020100000F0006080B31A48406B0068194988429C
:1020200005D94FF0006017494C3908601CE014488E
:10203000406B00681149B831884205D94FF0006003
:102040001049503908600FE00D48406B00680B499B
:102050005831884204D94FF000600849C86003E055
:102060004FF000600549886005480068006840F44A
:102070000070034909680860704700000060024072
:10208000480A00205864024010B5024801F0CAFD19
:1020900010BD00003810002010B5FE48C06C00686C
:1020A000FD49884276D9FC4854380068F949C96C22
:1020B0000968FA4A914201D1202169E0F549C96CC9
:1020C0000968F54A483A914201D1202160E0F1497E
:1020D000C96C0968F14A6032914201D1202157E070
:1020E000EC49C96C0968EC4A1832914201D12021AF
:1020F0004EE0E849C96C0968E84A1832914201D1BA
:10210000C91445E0E349C96C0968E34A303A914291
:1021100001D1C9143CE0DF49C96C0968DF4A783253
:10212000914201D1C91433E0DA49C96C0968DA4A2D
:102130003032914201D1C9142AE0D649C96C0968EC
:10214000D64A3032914202D14FF4001120E0D149F9
:10215000C96C0968D04A183A914202D14FF4001173
:1021600016E0CC49C96C0968CC4A9032914202D140
:102170004FF400110CE0C749C96C0968C64A4832DF
:10218000914203D14FF4001102E003E04FF00061EF
:10219000084070E1BF48C06C0068C049A83188425F
:1021A00076D9BD4858380068BA49C96C0968BB4A35
:1021B000914201D1202169E0B649C96C0968B64A4B
:1021C000483A914201D1202160E0B249C96C0968C6
:1021D000B24A6032914201D1202157E0AD49C96C29
:1021E0000968AD4A1832914201D120214EE0A94937
:1021F000C96C0968A94A1832914201D1C91445E055
:10220000A449C96C0968A44A303A914201D1C91461
:102210003CE0A049C96C0968A04A7832914201D1DA
:10222000C91433E09B49C96C09689B4A303291421A
:1022300001D1C9142AE09749C96C0968974A30321C
:10224000914202D14FF4001120E09249C96C096813
:10225000914A183A914202D14FF4001116E08D498B
:10226000C96C09688D4A9032914202D14FF4001135
:102270000CE08849C96C0968874A4832914203D109
:102280004FF4001102E003E04FF000610840F2E07B
:102290008048C06C006881494831884276D97F48BF
:1022A000103840687B49C96C09687C4A914201D169
:1022B000202169E07749C96C0968774A483A914218
:1022C00001D1202160E07349C96C0968734A60320A
:1022D000914201D1202157E06E49C96C09686E4ACC
:1022E0001832914201D120214EE06A49C96C096837
:1022F0006A4A1832914201D1C91445E06549C96C56
:102300000968654A303A914201D1C9143CE06149FB
:10231000C96C0968614A7832914201D1C91433E02D
:102320005C49C96C09685C4A3032914201D1C914D8
:102330002AE05849C96C0968584A3032914202D1A2
:102340004FF4001120E05349C96C0968524A183A09
:10235000914202D14FF4001116E04E49C96C096850
:102360004E4A9032914202D14FF400110CE049499B
:10237000C96C0968484A4832914203D14FF40011B0
:1023800002E003E04FF00061084074E04348103879
:1023900000684049C96C0968404A914201D1202136
:1023A00068E03C49C96C09683B4A483A914201D10E
:1023B00020215FE03749C96C0968384A6032914290
:1023C00001D1202156E03349C96C0968324A1832DC
:1023D000914201D120214DE02E49C96C09682F4A54
:1023E0001832914201D1C91444E02A49C96C0968E4
:1023F000294A303A914201D1C9143BE02549C96CC0
:102400000968264A7832914201D1C91432E0214943
:10241000C96C0968204A3032914201D1C91429E0BF
:102420001C49C96C09681D4A3032914202D14FF4EF
:1024300000111FE01749C96C0968174A183A914200
:1024400002D14FF4001115E01249C96C0968134A12
:102450009032914202D14FF400110BE00D49C96C4A
:1024600009680D4A4832914202D14FF4001101E04F
:102470004FF00061084000286FD00648C06C00682B
:10248000054988427BD90348C06C006803498842EB
:1024900008D105E0800B0020586402401060024023
:1024A000202068E0FE48C06C0068FE49884201D1E7
:1024B000202060E0FA48C06C0068FB49884201D1E6
:1024C000202058E0F648C06C0068F6496031884228
:1024D00001D120204FE0F248C06C0068F249483931
:1024E000884201D1C01446E0ED48C06C0068ED4957
:1024F0001831884201D1C0143DE0E948C06C006841
:10250000E9491831884201D1C01434E0E448C06C74
:102510000068E4497831884201D1C0142BE0E048DA
:10252000C06C0068E0493039884202D14FF4001095
:1025300021E0DB48C06C0068DA493031884202D1C2
:102540004FF4001017E0D648C06C0068D64930310F
:10255000884204D14FF400100DE0DFE10FE0D048D5
:10256000C06C0068CF499031884202D14FF400100E
:1025700001E04FF00060CB49091F08606AE1C848DC
:10258000C06C0068C8494831884274D9C448C06CDE
:102590000068C5496039884201D1202066E0C04802
:1025A000C06C0068BF49884201D120205EE0BC4871
:1025B000C06C0068BC49884201D1202056E0B84870
:1025C000C06C0068B7496031884201D120204DE0DD
:1025D000B348C06C0068B4494839884201D1C0147E
:1025E00044E0AF48C06C0068AE491831884201D160
:1025F000C0143BE0AA48C06C0068AB49183188425F
:1026000001D1C01432E0A648C06C0068A5497831F9
:10261000884201D1C01429E0A148C06C0068A249D9
:102620003039884202D14FF400101FE09C48C06C42
:1026300000689C493031884202D14FF4001015E007
:102640009748C06C006898493031884202D14FF4F5
:1026500000100BE09248C06C0068924990318842AB
:1026600002D14FF4001001E04FF000608D490839AD
:102670000860EFE0FFE78A48C06C00688A491839B3
:10268000884274D98648C06C00688749603988429E
:1026900001D1202066E08248C06C006881498842F0
:1026A00001D120205EE07E48C06C00687E498842EF
:1026B00001D1202056E07A48C06C00687949603129
:1026C000884201D120204DE07548C06C00687649F1
:1026D0004839884201D1C01444E07148C06C006898
:1026E00070491831884201D1C0143BE06C48C06C7D
:1026F00000686D491831884201D1C01432E0684841
:10270000C06C006867497831884201D1C01429E063
:102710006348C06C006864493039884202D14FF484
:1027200000101FE05E48C06C00685E49303188428E
:1027300002D14FF4001015E05948C06C00685A49A6
:102740003031884202D14FF400100BE05448C06C85
:10275000006854499031884202D14FF4001001E0E2
:102760004FF0006050497039C86073E0FFE74C4893
:10277000C06C00684C496039884201D1202066E075
:102780004748C06C00684749884201D120205EE07C
:102790004348C06C00684449884201D1202056E07B
:1027A0003F48C06C00683F496031884201D1202019
:1027B0004DE03B48C06C00683B494839884201D134
:1027C000C01444E03648C06C00683649183188426D
:1027D00001D1C0143BE03248C06C00683249183166
:1027E000884201D1C01432E02D48C06C00682D49E8
:1027F0007831884201D1C01429E02948C06C0068B2
:1028000029493039884202D14FF400101FE0244892
:10281000C06C006823493031884202D14FF4001067
:1028200015E01F48C06C00681F493031884202D152
:102830004FF400100BE01A48C06C00681949903141
:10284000884202D14FF4001001E04FF000601649B9
:10285000703988601548007800F0020078B113489C
:10286000007820F00200114908700846007840F016
:1028700004000870012211460D4801F077FD0D4853
:10288000007800F00200E0B10A48007820F0020071
:10289000084908700846007840F0040008700BE012
:1028A000800B00201064024070600240ED000020A8
:1028B00000040240EE00002001221021184801F01F
:1028C00055FD1848007800F0020078B115480078EE
:1028D00020F00200134908700846007840F0040018
:1028E0000870012210210E4801F040FD0CF0DCFFC1
:1028F0000D48007800F0040080B10B48007820F00B
:102900000400094908700846007840F00800087083
:102910000648006840F001000449086010BD00004E
:1029200000000240EF000020ED000020103C0140BC
:1029300010B5024801F076F910BD00009810002093
:1029400010B5024801F06EF910BD0000780F0020AC
:1029500001680A4BCAB2103AA3FB02321209084BB3
:102960009B5CC365032A04D96FF30901091D8165C6
:1029700002E06FF309018165806D7047ABAAAAAAD6
:102980008C3C0108014600208A6A8B69002B0FD01D
:10299000B3F5005F1DD08AB3012A30D0022A2ED0B1
:1029A000032A04D1C96A11F0807F00D0012070474A
:1029B0001AB1012A07D0022AF9D1C96A11F0807F21
:1029C000F5D001207047C96AB1F1C07FFAD101206A
:1029D00070475AB1012A0BD0022A07D0032AF7D137
:1029E000C96AB1F1C07FF3D101207047012070475F
:1029F000C96A11F0807FFAD001207047FFE70120FB
:102A00007047704710B5012001F08EFB10BD10B566
:102A1000082001F089FB10BD10B5102001F084FBE7
:102A200010BD10B5202001F07FFB10BD70470000E5
:102A30000022002905D001291AD002291BD04FF409
:102A400040720E490B6823F440730B600B681A4305
:102A50000A600A6822F078020A600A68022343EAE0
:102A6000C00010430860086840F480300860704778
:102A70004FF48072E5E74FF40072E2E7103C024049
:102A80001448016811F4007F0FD0016821F400712F
:102A90000160016841F400610160016821F4006196
:102AA0000160016841F400710160016811F4806FF8
:102AB0000FD0016821F480610160016841F4805108
:102AC0000160016821F480510160016841F4806176
:102AD00001607047003C024008490A6822F44072D5
:102AE0000A600A6842F004020A600A684FF4803300
:102AF00043EA00201043086070470000103C024089
:102B0000064A136823F44073136013681360136854
:102B100043F001031360017070470000103C024055
:102B20000B49D1F800C02CF4407CC1F800C0D1F8AA
:102B300000C04CF4407CC1F800C0D1F800C04CF09B
:102B4000010CC1F800C00260BFF36F8F4360704793
:102B5000103C0240074A136823F440731360136863
:102B600043F480731360136843F001031360018022
:102B700070470000103C0240074A136823F440737A
:102B80001360136843F400731360136843F0010388
:102B90001360016070470000103C02401A49086849
:102BA00010F0100F194805D0C26942F01002C2613E
:102BB00010220A600A6812F0200F05D0C26942F0A4
:102BC0000802C26120220A600A6812F0400F05D094
:102BD000C26942F00402C26140220A600A6812F02F
:102BE000800F05D0C26942F00202C26180220A60F1
:102BF0000A6812F0020F05D0C26942F02002C261D9
:102C000002200860704700000C3C0240D42B0020DA
:102C100070B5044614490020C86101F0AFFB0646B8
:102C2000124D286810F4803F0ED0B4F1FF3F07D05A
:102C300024B101F0A3FB801BA04201D9032070BD89
:102C4000286810F4803FF0D1286810F0010F01D0FF
:102C500001202860286810F0F20F03D0FFF79EFFD4
:102C6000012070BD002070BDD42B00200C3C024020
:102C700038B44FF0000CCDF800C090F83C20012A89
:102C80001BD0012280F83C200A680724092A17D9A2
:102C90000368DD680A3A02EB420204FA02F225EA0E
:102CA0000202DA600A788B680A3A02EB4202934029
:102CB0000268D4682343D36014E038BC0220704714
:102CC00003681D6902EB420204FA02F225EA0202DD
:102CD0001A610A788B6802EB420293400268146919
:102CE000234313614A681F24072A15D203685D6BCA
:102CF000521E02EB820204FA02F225EA02025A6331
:102D00000A8893B20A79521E02EB8202934002684B
:102D1000546B234353632CE00D2A15D203681D6BBB
:102D2000D21F02EB820204FA02F225EA02021A63BF
:102D30000A8893B20A79D21F02EB8202934002689A
:102D4000146B2343136314E00368DD6A0D3A02EB4E
:102D5000820204FA02F225EA0202DA620A8893B2D7
:102D60000A790D3A02EB820293400268D46A234347
:102D7000D362184A184B04689C4206D10C68122C86
:102D800003D1546844F48004546004689C421CD10C
:102D90000B68102B01D0112B17D1536843F400039B
:102DA00053600968102910D10C490D4A0968B1FB1C
:102DB000F2F101EB810149000091009929B10099DC
:102DC000491E009100990029F9D180F83CC038BC17
:102DD0000020704700230140002001403C000020FB
:102DE00040420F000068C06C704770B50446002573
:102DF000002C03D0206C002610B107E0012070BD2C
:102E0000204600F01DF8666484F83C60206C10F0E9
:102E1000100F04D0012584F83C60284670BD206C5A
:102E200020F4885040F0020020642046FDF758FD51
:102E30006664206C20F0020040F001002064EAE7A4
:102E400010B586B00446142101A8FDF73AFC2349C9
:102E5000206888420FD100BF002000902048006801
:102E600040F480701E4908600846006800F48070D5
:102E7000009000BF2FE01B49206888422BD100BF83
:102E8000002000901648006840F4806014490860F3
:102E90000846006800F48060009000BF00BF00BFDB
:102EA000002000900E481438006840F020000C49C3
:102EB000143908600846006800F02000009000BF48
:102EC00000BF08150190032002900020039001A983
:102ED000054801F035F906B010BD000000200140A2
:102EE0004438024000220140001402402DE9F04124
:102EF00004460D46206881684FF0000711F4806F8A
:102F00000CD0806810F4807F08D0206C40F0200046
:102F1000206484F83C700120BDE8F08101F02EFAB5
:102F200006462068006810F0020F12D1B5F1FF3F8D
:102F30000AD025B101F022FA801BA84204D92068EA
:102F4000006810F0020F12D02068006810F0020F25
:102F5000ECD021686FF012000860206C40F4007023
:102F600020642068816811F0405F09D01EE0206C69
:102F700040F00400206484F83C700320BDE8F08138
:102F8000217E99B9C16A11F4700F03D0806810F4E2
:102F9000806F0BD1206C20F480702064206C10F4C2
:102FA000805F03D1206C40F0010020640020BDE868
:102FB000F081000081B00022009290F83C100129BD
:102FC00008D0012180F83C1001688B6813F0010FD4
:102FD00003D016E0022001B070478B6843F0010374
:102FE0008B603949394B0968B1FBF3F101EB4101C1
:102FF0000091009929B10099491E0091009900297A
:10300000F9D101688B6813F0010F52D0036C23F0E3
:10301000010323F4C06343F4807303644B6813F427
:10302000806F05D0036C23F4005343F48053036492
:10303000036C13F4805F04D0436C23F006034364F5
:1030400000E0426480F83C20214A6FF022030B60CC
:10305000516811F01F0F1F4907D00068884230D116
:10306000816811F0405F1FD02BE00068884212D0C9
:10307000194A904204D1D1F8042312F01F0F0AD04C
:10308000A0F18042B2F591321BD1D1F8041301F0C6
:103090001F01102915D2816811F0405F11D181689C
:1030A00041F0804181600CE0816841F080418160A5
:1030B00007E0016C41F010010164416C41F0010135
:1030C0004164002001B070473C00002040420F00E6
:1030D00000230140002001400021014090F8202001
:1030E000012A07D0022A05D0416A41F480214162B9
:1030F0000120704700684269114341610020704718
:1031000070B490F82040D0F800C0DCF808C0012C62
:1031100008D0022C06D0416A41F48021416270BC83
:10312000012070470CF080640CF000652C4302D144
:103130001CF0805F55D0CCF3016C012404FA0CF430
:103140001C608B684FF4C0749BB1CD6804EB0C1607
:103150002B434D6843EAC5030568AB514FF4C27376
:10316000066803EB0C130D69F550097D012909D0A0
:103170000DE00D88CB6804EB0C1643EA4553056857
:10318000AB51EBE70168CD5845F48075CD5011790E
:10319000D379557941EA036193791B0443EA052306
:1031A00019434FF4C675036805EB0C155951117896
:1031B000D37841EA0361937852781B0443EA0222F0
:1031C00011434FF4C473026803EB0C13D150016830
:1031D00004EB0C100A5842F001020A5070BC0020A7
:1031E0007047416A41F40011416270BC0120704790
:1031F00090F82020012A07D0022A05D0416A41F424
:1032000080214162012070474248D0F8002242F0FC
:103210000102C0F80022D0F8002222F47C52C0F84B
:103220000022D0F800224B6A42EA0322C0F80022B2
:103230000A7D012302F01F0203FA02F2D0F81C32C9
:103240009343C0F81C32CB69D3B9D0F80C32934306
:10325000C0F80C32B1F80CC04B686CF31F43D1F8C6
:1032600014C000EBCC0CCCF84032B1F808C00B68AD
:103270006CF31F43D1F814C000EBCC0CCCF84432F3
:10328000CB69012B1AD1D0F80C321343C0F80C32A1
:10329000B1F800C04B686CF31F43D1F814C000EBC9
:1032A000CC0CCCF84032B1F808C0CB686CF31F43AB
:1032B000D1F814C000EBCC0CCCF844328B697BB154
:1032C000D0F804321343C0F804320B6973B1D0F85C
:1032D00014321343C0F81432096A01290CD010E0EB
:1032E000D0F804329343C0F80432EEE7D0F8143239
:1032F0009343C0F81432EFE7D0F81C121143C0F822
:103300001C12D0F8001221F00101C0F800120020B8
:103310007047000000640040704730B490F820C04F
:10332000BCF1010F09D0BCF1020F06D0416A41F493
:103330008021416230BC0120704739B1D0F800C013
:10334000DCF810C01CF0030F33D006E0D0F800C04A
:10335000DCF80CC01CF0030F24D04FF4D87C0468B8
:103360000CEB011C54F80C4004F0040494603CB3D2
:10337000046854F80C40E4085460046854F80CC025
:103380000CF0020CC2F80CC04FF4DA7C04680CEBB1
:10339000011C54F80C5005F00F05082D16D3082415
:1033A000146118E0416A41F40011416230BC01200F
:1033B0007047416A41F40011416230BC01207047FE
:1033C000046854F80C40640D1460D6E754F80C40BF
:1033D00004F00F041461046854F80C40C4F307248B
:1033E0009461046854F80CC04FEA1C4CC2F814C035
:1033F0004FF4DC72D0F800C002EB01125CF802C09E
:1034000083F800C0D0F800C05CF802C04FEA1C2C62
:1034100083F801C0D0F800C05CF802C04FEA1C4C31
:1034200083F802C0D0F800C05CF80220120EDA70F7
:103430004FF4DE72D0F800C002EB01125CF802C05B
:1034400083F804C0D0F800C05CF802C04FEA1C2C1E
:1034500083F805C0D0F800C05CF802C04FEA1C4CED
:1034600083F806C0D0F800C05CF80220120EDA71B2
:1034700039B10068016941F02001016130BC0020D0
:1034800070470068C16841F02001C160F6E72DE98E
:10349000F05F0546002428684669D0F804908768E4
:1034A000D0F80CA0D0F810B0D0F8188016F0010FAA
:1034B00054D017F0010F17D00121816017F0020FCF
:1034C00003D0284600F07CFB0EE017F0040F02D07A
:1034D0004FF4006408E017F0080F02D04FF4805456
:1034E00002E0284600F06BFB17F4807F19D02968B2
:1034F0004FF48070886017F4007F03D0284600F0F6
:1035000061FB0EE017F4806F02D044F4005408E031
:1035100017F4006F02D044F4804402E0284600F023
:1035200050FB17F4803F19D029684FF48030886031
:1035300017F4003F03D0284600F046FB0EE017F4D6
:10354000802F02D044F4004408E017F4002F02D08A
:1035500044F4803402E0284600F035FB16F0080FF2
:1035600007D01AF0100F04D044F40074296810201A
:10357000C86016F0040F4FF0080707D01AF0080FC4
:1035800004D02868C760284600F010FA16F0020F31
:1035900007D02868C06810F0030F02D0284600F05A
:1035A00007FA16F0400F07D01BF0100F04D044F4B8
:1035B000806429681020086116F0200F07D01BF0E6
:1035C000080F04D028680761284600F057FA16F063
:1035D000100F07D02868006910F0030F02D02846AA
:1035E00000F04EFA16F4003F08D019F0100F05D085
:1035F000296810204860284600F0AEFA16F4803F93
:1036000007D019F0080F04D028684760284600F05A
:10361000DCFA16F4004F4AD019F0040F44D016F427
:10362000807F04D018F0010F01D044F0010416F49B
:10363000007F04D018F0020F01D044F0020416F409
:10364000806F04D018F0040F01D044F0040416F485
:10365000006F29D018F0700F26D008F070004028B5
:1036600015D006DC102809D020280AD0302816D121
:103670000AE050280ED0602811D10EE044F0080472
:103680000DE044F010040AE044F0200407E044F0A8
:10369000400404E044F0800401E044F480742868AD
:1036A000816921F070018161296804204860002C43
:1036B00005D0686A204368622846FFF72DFEBDE802
:1036C000F09F70B50446002C03D094F8200010B190
:1036D00004E0012070BD204600F0A8F820680168D1
:1036E00041F00101016000F049FE05462068406894
:1036F0004FF0050610F0010F11D100F03FFE401B06
:103700000A2807D9606A40F40030606284F82060BB
:10371000012070BD2068406810F0010FEDD02068D6
:10372000016821F00201016000F028FE05462068D2
:10373000406810F0020F11D000F020FE401B0A2854
:1037400007D9606A40F40030606284F8206001208C
:1037500070BD2068406810F0020FEDD1207E012876
:103760003FD02068016821F080010160607E01285F
:103770003DD02068016821F040010160A07E012851
:103780003BD02068016821F020010160E07E012823
:1037900039D02068016841F010010160207F0128C4
:1037A00037D02068016821F008010160607F01289E
:1037B00035D02068016821F004010160E168A0684B
:1037C000626908432169114308436168491E08433F
:1037D0002168C86100206062012084F82000002078
:1037E00070BD2068016841F080010160BEE720687B
:1037F000016841F040010160C0E72068016841F0C4
:1038000020010160C2E72068016821F01001016019
:10381000C4E72068016841F008010160C6E720683C
:10382000016841F004010160C8E7000010B586B0EE
:103830000446142101A8FCF744FF56492068884239
:1038400049D155480068401C534908600846006843
:1038500001280FD100BF002000905048006840F0C0
:1038600000704E4908600846006800F00070009043
:1038700000BF00BF00BF002000904848103800681B
:1038800040F008004549103908600846006800F01B
:103890000800009000BF00BF0320019002200290AA
:1038A00000200390032004900920059001A93C48C2
:1038B00000F046FC00220621142001F0DFF914205C
:1038C00001F0CEF900220521152001F0D7F91520CD
:1038D00001F0C6F95CE033492068884258D100BF46
:1038E000002000902D48006840F080602B4908605F
:1038F0000846006800F08060009000BF00BF2648C6
:103900000068401C244908600846006801280FD15F
:1039100000BF002000902148006840F000701F495F
:1039200008600846006800F00070009000BF00BF0B
:1039300000BF0020009019481038006840F00200D5
:103940001649103908600846006800F0020000902F
:1039500000BF00BF60200190022002900020039071
:10396000032004900920059001A90F4800F0E8FB0E
:1039700000220621402001F081F9402001F070F979
:1039800000220521412001F079F9412001F068F978
:1039900006B010BD006400403000002040380240F6
:1039A000000C024000680040000402407047000024
:1039B00010B58AB0044601AB03AA00212046FFF7E8
:1039C000ACFC0398A0F2012030B1012805D00228F8
:1039D00004D0032849D102E000BF00BF00BF039814
:1039E000401E244908700846007800EB80002249F8
:1039F00031F8100000B21F49097801EB81011E4A1D
:103A000002EB410108819DF805009DF8041040EA91
:103A100001201849097801EB810122F811009DF875
:103A200007009DF8061040EA012000B2114909780C
:103A300001EB810102EB410148809DF809009DF8EE
:103A4000081040EA012000B20A49097801EB81011F
:103A500002EB410188809DF80A000649097801EBD4
:103A6000810102EB4101887100E000BF00BF0AB094
:103A700010BD0000C0000020241900207047000085
:103A800010B58AB0044601AB03AA01212046FFF716
:103A900044FC0398A0F2052030B1012805D002288B
:103AA00004D003284FD102E000BF00BF00BF03983D
:103AB000401F2749087008460078001D00EB800071
:103AC000244931F8100001B221480078001D00EBB4
:103AD0008000204A02EB400001819DF805009DF81E
:103AE000041040EA01211A480078001D00EB800014
:103AF00022F810109DF807009DF8061040EA0120FA
:103B000001B213480078001D00EB800002EB40007A
:103B100041809DF809009DF8081040EA012001B29B
:103B20000B480078001D00EB800002EB4000818014
:103B30009DF80A1006480078001D00EB800002EB9B
:103B40004000817100E000BF00BF0AB010BD00005E
:103B5000C100002024190020704770B5044694F875
:103B60002000012805D0606A40F400206062012036
:103B700070BD022084F820002068016821F0010156
:103B8000016000F0FBFB05462068406810F0010F63
:103B900012D000F0F3FB401B0A2808D9606A40F4F9
:103BA00000306062052084F82000012070BD20688C
:103BB000406810F0010FECD10020606270BD7047CA
:103BC00070477047704770477047704710B504469C
:103BD000002C02D0607910B106E0012010BD002059
:103BE0002071204600F004F801206071002010BD13
:103BF00008B50A4A016891420FD100BF0021009127
:103C00000749096841F48051054A11601146096865
:103C100001F48051009100BF00BF08BD0030024098
:103C2000303802402DE9F84304464FF00008CDF843
:103C3000008076484FF416510068B0FBF1F7A56D8F
:103C40002E6894F85C00082101FA00F0304211D08F
:103C50002068026812F0040F0CD0026822F00402FF
:103C6000026094F85C0001FA00F0A860606D40F01A
:103C70000100606594F85C004FF0010909FA00F05A
:103C8000304209D02168496911F0800F04D0A86042
:103C9000606D40F00200606594F85C10042088407C
:103CA000304209D02168096811F0020F04D0A860E1
:103CB000606D40F00400606594F85C10102088404E
:103CC000304224D02168096811F0080F1FD0A86085
:103CD0002068016811F4802F0DD0006810F4002FC7
:103CE00004D0A16C99B12046884710E0216C71B1D5
:103CF000204688470BE0016811F4807F03D10168FA
:103D000021F008010160216C09B12046884794F830
:103D10005C1020208840304251D02168096811F0A1
:103D2000100F4CD0A86094F8350005280DD02068FD
:103D3000016811F4802F32D0006810F4002F29D0D0
:103D4000E16B59B32046884739E02068016821F0CB
:103D5000160101602068416921F080014161206CF9
:103D600008B9A06C20B12068016821F00801016049
:103D700094F85C003F2101FA00F0A86084F83590C7
:103D800084F83480216D00293ED001B02046BDE882
:103D9000F0430847616C09B1204688470FE001688D
:103DA00011F4807F07D1016821F01001016084F8CF
:103DB000359084F83480E16B09B120468847606D06
:103DC000002821D0606D10F0010F15D0052084F877
:103DD00035002068016821F0010101600098401C55
:103DE0000090B84204D82068006810F0010FF5D1A7
:103DF00084F8359084F83480E16C002904D001B057
:103E00002046BDE8F0430847BDE8F8833C000020A9
:103E10002DE9F041044600F0B1FA0546DCB102207C
:103E200084F83500002684F834602068016821F0A9
:103E3000010101602068006810F0010F13D000F04C
:103E40009DFA401B052809D920206065032084F8CD
:103E50003500BDE8F0810120BDE8F08120680068F0
:103E600010F0010FEBD121680868234A1040A368C5
:103E70006268D4F810C01A43E36843EA0C031A439B
:103E800063691A43A3691A43E3691A43236A1A430D
:103E90001043626A042A03D1236BE26A1A43104377
:103EA00008602068406920F00701606A40EA010567
:103EB000012704280ED1A06A0543E06A50B12046CC
:103EC000FEF760FD30B14020606584F83570012058
:103ED000BDE8F081206845612046FEF739FD94F881
:103EE0005C103F2202FA01F18160666584F835704A
:103EF0000020BDE8F08100003F8010F02DE9F04186
:103F000004460F46DFF8988098F8180001280AD078
:103F1000012088F818004CF25030FEF779FE024676
:103F2000100003D035E00220BDE8F0814FF0FF30F3
:103F3000386020681B4E012815D0A568E068284429
:103F4000A84224D9217C2846FEF772FD4CF250305D
:103F5000FEF75EFE0246306820F07A003060100006
:103F60000FD03D6013E0207C6168FEF7B5FD4CF298
:103F70005030FEF74DFE0246306820F004003060FD
:103F800005E06D1CA168E0680844A842DAD8FEF795
:103F900077FD002088F818001046BDE8F081000089
:103FA000D42B0020103C02400348016841F000413E
:103FB0000160002070470000103C02402DE9F041F4
:103FC0000646884614461D461A4F387E012807D0FB
:103FD000012038764CF25030FEF71AFE18B115E089
:103FE0000220BDE8F081AEB1012E18D0022E1BD008
:103FF00022462B464046FEF793FD4CF25030FEF72A
:1040000007FE0D490A6822F001020A600021397694
:10401000BDE8F081E1B24046FEF772FDEDE7A1B2E6
:104020004046FEF797FDE8E721464046FEF7A4FD2F
:10403000E3E70000D42B0020103C02400020084998
:104040000A6812F0004F09D0074A064B1360074B6D
:104050001360096811F0004F00D001207047000084
:10406000103C024023016745043C0240AB89EFCD80
:1040700010B50446102C14D109200AF0B7FF2248CD
:10408000007840F00100204908702048007840F096
:1040900001001E4908701E480078A0B30BF004FC14
:1040A00031E0202C0ED108200AF0A0FF194800783A
:1040B00040F00100174908701548007818B30BF05C
:1040C000F3FB20E0082C09D10A200AF08FFF1248E8
:1040D000007840F001001049087014E0012C12D162
:1040E0000DF098FE01280ED00C490D4800680DF027
:1040F00077F90A48006830B120070A490860BFF321
:104100004F8FBFF36F8F10BDEE000020EF00002037
:10411000F1000020ED000020F000002064010020EC
:10412000C800002004ED00E010B504490A6802420E
:1041300002D00860FFF79CFF10BD0000143C014056
:104140002DE9F84F0022DFF818A2DFF810924FF0A7
:10415000010E03274FF00F08AAF1040B0EFA02FC20
:104160000B6803EA0C0363457DD10C7904F003046A
:10417000012C01D0022C14D18568540007FA04F6F2
:10418000B543CE6806FA04F42C438460446824EAFC
:104190000C0C0C79C4F30014944044EA0C0CC0F8E5
:1041A00004C0D1F804C037EA0C0C0CD0C4684FEA44
:1041B000420C07FA0CF5AC438D6805FA0CFC4CEA8E
:1041C000040CC0F80CC091F804C00CF0030CBCF156
:1041D000020F12D14FEAD20C00EB8C04256A4FEA91
:1041E000427C4FEADC6C08FA0CF6B5430E6906FA1D
:1041F0000CFC4CEA050CC4F820C004684FEA420CE1
:1042000007FA0CF5AC430D7905F0030505FA0CFC33
:104210004CEA040CC0F800C0D1F804C01CF4403FC4
:104220007DD0D9F800C04CF4804CC9F800C0D9F852
:1042300000C00CF4804CCDF800C022F0030C0CF14F
:10424000804505F59835D5F808C89407240F08FA75
:1042500004F62CEA0606A0F1804CBCF5003C64D0C4
:10426000A0F1804C00E05AE0BCF5013C60D0A0F128
:10427000804CBCF5023C5ED0A0F1804CBCF5033C08
:104280005CD0A0F1804CBCF5043C5AD0A0F1804C2D
:10429000BCF5053C58D0A0F1804CBCF5063C56D08E
:1042A000A0F1804CBCF5073C54D04FF0080C0CFA40
:1042B00004FC4CEA060CC5F808C8DAF800C02CEA81
:1042C000030C4C6814F4801F01D04CEA030CCAF8AC
:1042D00000C0244CD4F800C02CEA030C4D6815F43F
:1042E000001F01D04CEA030CC4F800C0DBF800C08A
:1042F0002CEA030C4C6814F4003F01D04CEA030C88
:10430000CBF800C0184CD4F800C02CEA030C4D6860
:1043100015F4803F01D04CEA030CC4F800C0521CD5
:10432000102AFFF41BAFBDE8F88F4FF0000CBEE77A
:104330004FF0010CBBE74FF0020CB8E74FF0030C55
:10434000B5E74FF0040CB2E74FF0050CAFE74FF0C4
:10435000060CACE74FF0070CA9E700004438024018
:10436000083C01400C3C0140003C0140002A01D0C7
:1043700081617047090481617047000001488068CD
:1043800070470000D001002070B50446002C04D016
:1043900094F83D00002510B106E0012070BD84F8BE
:1043A0003C50204600F0EAFA242084F83D002068C2
:1043B000016821F0010101602068016841F40041B9
:1043C00001602068016821F40041016001F048FAB1
:1043D000544B6168994203D85349884203D304E09F
:1043E0005249884201D2012070BD5149B0FBF1F120
:1043F0002268D2F804C02CF03F0C4CEA010CC2F841
:1044000004C062689A4201D84A1C07E04FF49672D1
:1044100051434FF47A72B1FBF2F14A1C2168D1F892
:1044200020C02CF03F0C42EA0C020A6261689942FB
:1044300010D84900401EB0FBF1F2521CC2F30B022F
:10444000042A01D2042026E0B0FBF1F0401CC0F3A6
:104450000B0020E0A268002A50D001EBC10303EB5F
:104460000113A0F1010CBCFBF3F35B1C43F480438C
:104470001B051B0D4AD0002A4AD001EBC10202EBFA
:104480000111401EB0FBF1F0401CC0F30B0040F4E2
:10449000804040F400402168CA6922F0FF0222F403
:1044A0004F421043C861216AE069014320680268F5
:1044B00022F0C00211430160E168206901432068D5
:1044C000826822F0FF0222F4034211438160A16955
:1044D000606901432068C26822F0FF021143C16095
:1044E0002068016841F0010101602564202084F802
:1044F0003D00256384F83E50002070BD01EB410370
:10450000A0F1010CBCFBF3F35B1CB1E70120C2E797
:1045100001EB4101401EB0FBF1F0401CC0F30B0069
:10452000B7E70000A086010080841E0000093D005E
:1045300040420F002DE9FF4F83B004468A46934660
:10454000DDF84490DDF84080129EFFF717FF054626
:1045500094F83D00202803D007B00220BDE8F08F7A
:1045600019230122A5492046009502F0A4FE18B1A6
:1045700007B00220BDE8F08F94F83C00012808D075
:10458000012084F83C002068016811F0010F04D07C
:1045900007E007B00220BDE8F08F016841F001019B
:1045A00001602068016821F400610160222084F824
:1045B0003D00402084F83E0000272764C4F8248092
:1045C000A4F82A90608D20858D48E06201950096C0
:1045D0005A4651462046069B02F028FD18B107B006
:1045E0000120BDE8F08F208D10B3012829D00228CA
:1045F00035D02068416980690290208D002800F044
:10460000F180DFF80082208D032800F2B7800128B6
:1046100034D002284AD03346002241462046009535
:1046200002F049FE00286CD007B00120BDE8F08FF1
:104630002068416981690291016841F4007101605B
:10464000DBE72068016821F480610160206841692E
:1046500081690291016841F400710160CDE7206831
:10466000016821F4806101602068016841F4006103
:1046700001602068416980690290BEE72A463146A0
:10468000204602F003FF18B107B00120BDE8F08F0B
:1046900020680069616A0870606A401C6062208D51
:1046A000401E2085608D401E608597E033460022C5
:1046B00041462046009502F0FEFD18B107B00120EA
:1046C000BDE8F08F2068016841F400710160206846
:1046D0000069616A0870606A401C6062218D491E31
:1046E0002185618D491E6185216809690170606AB3
:1046F000401C6062208D401E2085608D401E6085BC
:104700006CE02068016821F4806101602068006924
:10471000616A0870606A401C6062208D401E2085BE
:10472000608D401E6085334600224146204600953C
:1047300002F0C1FD18B107B00120BDE8F08F20687C
:10474000016841F40071016020680069616A0870C5
:10475000606A401C6062218D491E2185618D491E61
:104760006185216809690170606A401C6062208D62
:10477000401E2085608D401E60852FE02A46314610
:10478000204602F083FE18B107B00120BDE8F08F8B
:1047900020680069616A0870606A401C6062208D50
:1047A000401E82B22285608D401E6085206841696E
:1047B00011F0040F12D0032A03D1016821F48061A3
:1047C000016020680069616A0870606A401C60626C
:1047D000208D401E2085608D401E6085208D002824
:1047E0007FF411AF202084F83D0084F83E7084F8F7
:1047F0003C7007B00020BDE8F08F00000200100000
:104800000000FFFF040001002DE9FF4F83B00446C4
:104810008A469346DDF84490DDF84080129EFFF70B
:10482000ADFD054694F83D00202803D007B00220D6
:10483000BDE8F08F192301224E492046009502F071
:104840003AFD18B107B00220BDE8F08F94F83C00A3
:10485000012808D0012084F83C002068016811F08C
:10486000010F04D007E007B00220BDE8F08F016817
:1048700041F0010101602068016821F400610160DC
:10488000212084F83D00402084F83E000027276462
:10489000C4F82480A4F82A90608D20853648E06210
:1048A000019500965A4651462046069B02F068FC48
:1048B00018B107B00120BDE8F08F208D002836D058
:1048C0002A463146204602F024FE58B1206C0428C6
:1048D00004D12068016841F40071016007B0012033
:1048E000BDE8F08F606A216800780861606A00F1B5
:1048F000010CC4F824C0208D401E80B22085618D3B
:10490000491E61852368596911F0040F0CD058B114
:104910009CF800001861606A401C6062208D401E97
:104920002085608D401E6085208D0028C8D12A46D4
:104930003146204602F08CFC58B1206C042804D18A
:104940002068016841F40071016007B00120BDE8F2
:10495000F08F2068016841F400710160202084F824
:104960003D0084F83E7084F83C7007B00020BDE83C
:10497000F08F0000020010000000FFFF10B586B0AD
:104980000446142101A8FBF79CFE73492068884265
:1049900030D100BF002000907048006840F0020055
:1049A0006E4908600846006800F00200009000BFF1
:1049B00000BF4FF44070019012200290012003903C
:1049C000032004900420059001A96548FFF7B8FB77
:1049D00000BF0020009061481030006840F40010D3
:1049E0005E49103108600846006800F4001000902D
:1049F00000BFAFE05B492068884259D100BF00206A
:104A000000905648006840F020005449086008466D
:104A1000006800F02000009000BF00BF032001905C
:104A2000122002900120039003200490042005909E
:104A300001A94D48FFF784FB00BF002000904748C4
:104A40001030006840F48000444910310860084686
:104A5000006800F48000009000BF00BF4348444954
:104A600008604FF06060486040214148816000214B
:104A7000C1604FF480610161002141618161C161C8
:104A80004FF40031016200214162FFF7C1F908B122
:104A9000FDF7CCFF00BF36486063846300BF354834
:104AA0000068406840F4006032490968486051E09D
:104AB0003149206888424DD100BF0020009027482E
:104AC000006840F00400254908600846006800F0CE
:104AD0000400009000BF00BF00BF00200090084607
:104AE000006840F0010008600846006800F001001E
:104AF000009000BF00BF48150190122002900120D5
:104B00000390032004900420059001A91B48FFF79F
:104B100017FB4FF480700190122002900120039047
:104B2000032004900420059001A91548FFF708FB15
:104B300000BF0020009009481030006840F40000D9
:104B40000649103108600846006800F40000009033
:104B500000BF00BF06B010BD005400403038024016
:104B6000000402400058004000140240B8600240B7
:104B7000F00A0020480A0020005C004000080240C3
:104B80000000024002488168027811448160704749
:104B9000D001002010B50B48016841F4007101609C
:104BA000016841F480610160016841F48071016035
:104BB000032000F097F80F2000F006F800F026F828
:104BC000002010BD003C024070B504460D4D4FF46E
:104BD0007A712878B1FBF0F00B490968B1FBF0F06D
:104BE00001F0ECFB08B1012070BD102C07D20022AF
:104BF0002146501E00F042F86C60002070BD01207C
:104C000070BD0000D00100203C00002008B500BFAE
:104C1000002000901148006840F480400F4908606F
:104C20000846006800F48040009000BF00BF00BF4D
:104C300000200090081F006840F08050091F0860A5
:104C40000846006800F08050009000BF00BF0022BE
:104C50000F21901E00F012F808BD000044380240F9
:104C600000280ADB00F01F01012202FA01F14009CD
:104C7000800000F1E020C0F80011704710B4184B1C
:104C80001B68C3F30223C3F1070CBCF1040F01D965
:104C90004FF0040C1C1D072C01D2002300E0DB1E8A
:104CA000012404FA0CFCACF1010C0CEA010199405E
:104CB00004FA03F35B1E1A401143002806DB00F1DF
:104CC000E020090180F8001410BC704700F00F00CC
:104CD00000F1E020090180F8141D10BC70470000AD
:104CE0000CED00E000F00700064A11684FF6FF03E4
:104CF000194041EA002040F0FD7040F080601060F3
:104D0000704700000CED00E0704710B50446D4F881
:104D1000E00407F0EFFB10BD70B504460D4605EB4F
:104D2000C50304F1140101EB8301CA682946D4F8D4
:104D3000E00407F006FB70BD70B504460D4605EBB8
:104D4000C50304F5157101EB8301CA682946D4F83F
:104D5000E00407F067FB70BD10B50446D4F8E0042A
:104D600007F0CAFB10BD11F0800F01F00F0101EB3D
:104D7000C10100EB810101D0143101E001F5157191
:104D8000006808F0A2B970B5044601F00F0220795E
:104D9000824201D9012070BD01F00F0000EBC0007C
:104DA00011F0800F04EB80004FF001034FF000057D
:104DB00003D000F114014B7002E000F515714D7045
:104DC0008D700A7094F89404012808D084F8943403
:104DD000206807F0D9FF84F89454002070BD0220A9
:104DE00070BD70B5044611F0800F01F00F0000EBAC
:104DF000C00104EB81014FF0010C4FF0000503D01E
:104E0000143181F801C002E001F515714D70087090
:104E1000C2F30A028A600B714A7802B14883022BFE
:104E200000D14D7194F89404012808D084F894C4FA
:104E3000206807F01DFF284684F8945470BD0220B6
:104E400070BD10B501F00F0C0CEBCC0100EB810133
:104E500001F51571CA600B6100234B614B7081F83D
:104E600000C08379012B00D1CA618279006807F004
:104E7000E6FF002010BD70B504460D46217905F00F
:104E80000F00884201D9012070BD15F0800F4FF04E
:104E900000064FF0010206D000EBC00104EB8101D7
:104EA00014314A7006E005EBC50104EB810101F500
:104EB00015714E708A70087094F89404012808D017
:104EC00084F89424206807F08BFF15F00F0F02D0B0
:104ED00007E0022070BDA17904F29C42206807F02F
:104EE00023FF84F89464002070BD10B501F00F0C0E
:104EF0000CEBCC0100EB81010A624B6200238B6258
:104F000001234B7501F814CF8379012B00D1CA61BD
:104F10008279006807F093FF002010BD2DE9F05F53
:104F200004462568284608F061F900287ED12068EB
:104F300008F088F9002879D0D5F80808C0F30D20CA
:104F4000C4F8D404206808F07DF910F0020F04D0F2
:104F50002068416901F002014161206808F072F99E
:104F600010F0100F36D02068816921F010018161A6
:104F70002F6A07F00F0000EBC00004EB800000F583
:104F80001576C7F34340022802D0062812D01CE051
:104F900047F6F070074218D0C7F30A1217462846A2
:104FA000F16808F053F9F0683844F06070693844EB
:104FB00070610AE0082204F29C41284608F046F994
:104FC0007069C7F30A11084470612068816941F073
:104FD00010018161206808F035F910F4002F4FF0BE
:104FE000100B4FF0000A4FF0010967D0002620682F
:104FF00008F007F980465FEA08005FD018F0010F5B
:1050000056D0F1B2206808F015F9074617F0010FE5
:1050100007D005EB4610C0F8089B3146204603F048
:10502000AFFA17F0080F0AD0082000E01EE205EBE7
:105030004611C1F8080B3146204603F07DFA17F0FF
:10504000100F03D005EB4610C0F808BB17F0020F95
:105050001DD0686910F0800F05D0D5F8040840F421
:105060008061C5F8041806EBC60004EB800000F56B
:105070001570C178012905D180F803A0F1B220464E
:1050800000F006FA05EB46110220C1F8080B17F0F4
:10509000200F04D005EB46112020C1F8080B17F4AF
:1050A000005F05D005EB46114FF40050C1F8080B26
:1050B000761C4FEA5808B8F1000F9FD1206808F01D
:1050C000C1F810F4802F74D0206808F093F80746D8
:1050D0000026002F6DD04FF0020B17F0010F64D0A7
:1050E000F1B2206808F094F8804618F0010F24D03F
:1050F00006F00F0009FA00F0D5F834188143C5F81E
:10510000341805EB4610C0F80899A079012810D191
:1051100006EBC60004EB8000C269016A114401621B
:105120003EB9606A28B904F29C420121206807F068
:10513000FBFDF1B22046FFF7EFFD18F0080F04D099
:1051400005EB46110820C1F8080918F0100F04D02B
:1051500005EB46111020C1F8080918F0400F04D0E3
:1051600005EB46114020C1F8080918F0020F15D0D0
:105170003146284608F003F806EBC60004EB800031
:105180001430C178012905D180F803A0F1B220467E
:1051900000F075F905EB4610C0F808B918F0800F5B
:1051A00003D03146204603F05FFA761C7F08002FBB
:1051B00093D1206808F046F810F0004F11D0D5F8D0
:1051C000040820F00101C5F8041894F8CC04012863
:1051D00061D0204600F07DF92068416901F000416E
:1051E0004161206808F02EF810F4006F0CD0D5F85B
:1051F000080810F0010F02D0204600F095F9206851
:10520000416901F400614161206808F01BF810F465
:10521000805F65D0D5F8040820F00101C5F80418B6
:105220001021206807F0ABFF0021207900281DD94C
:105230004FF67F3205EB4110C0F80829D0F800394D
:1052400023F40013C0F80039C0F8082BD0F8003B55
:1052500023F40013C0F8003BD0F8003B43F0006398
:10526000C0F8003B491C20798842E3D8D5F81C08D7
:1052700040F00111C5F81C18E07B98B1D5F88408FE
:1052800040F00B01C5F88418D5F8440840F00B0134
:10529000C5F8441813E084F8CCA400212046FFF799
:1052A00033FD99E7D5F8140842F22B010143C5F804
:1052B0001418D5F8100840F00B01C5F81018D5F8EF
:1052C000000820F4FE61C5F80018A17904F29C42A0
:1052D000206807F029FD2068416901F4805141618F
:1052E000206807F0AFFF10F4005F16D0206807F0C9
:1052F0000DFD206807F06AFFE07100F0ABFA23684B
:105300000146E279184607F0D7FF204600F0C9F8B9
:105310002068416901F400514161206807F092FF63
:1053200010F0080F07D0204600F0DAF82068416935
:1053300001F008014161206807F084FF10F0800F40
:1053400017D0A86920F08001A961012620790128E1
:105350000FD906EBC60004EB800090F85702012835
:1053600003D1F1B22046FFF7FEFC761C2079B04253
:10537000EFD8206807F066FF10F4801F22D00126C6
:105380002079012819D905EB4610D0F8001906EB51
:10539000C60004EB8000027E012A0AD111F0004F02
:1053A00007D080F81790F0B240F080012046FFF758
:1053B000DAFC761C2079B042E5D82068416901F416
:1053C00080114161206807F03DFF10F4001F2DD0CF
:1053D00001202179012924D905EB4011D1F8001BC6
:1053E00000EBC00204EB820292F85832012B14D178
:1053F00011F0004F11D094F8D434C1F3004103F000
:1054000001038B4209D182F85792A96941F08002C9
:10541000AA61696911F0800F2AD0401C217981426C
:10542000DAD82068416901F400114161206807F071
:1054300009FF10F0804F07D02046FFF766FC206878
:10544000416901F080414161206807F0FBFE10F0E6
:10545000040F0BD02068456815F0040F02D02046D9
:10546000FFF77AFC2068416829434160BDE8F09F5E
:10547000D5F8040840F40070C5F80408D1E770B509
:1054800004460D462946D4F8E00407F061F870BDE3
:1054900070B504460D462946D4F8E00407F06DF8CF
:1054A00070BD70B504460125E07908B9002506E015
:1054B000E079022801D1012501E0FDF7B7FA29467C
:1054C000D4F8E00407F0E6F8D4F8E00407F09AF81E
:1054D00070BD10B50446D4F8E00407F0C4F810BD60
:1054E00010B50446D4F8E00407F0C7F810BD10B5B5
:1054F000044694F8940401280AD0012084F8940406
:105500006174206807F0C6FE002084F8940410BD82
:10551000022010BD10B5044604F29C41D4F8E0040A
:1055200007F0CEF810BD000010B50446D4F8E00432
:1055300007F00BF92068D0F8000E40F00100216858
:10554000C1F8000EE07A28B10348006840F0060078
:105550000149086010BD000010ED00E02DE9F8439E
:1055600004464FF0010820784FF0000710F0050FB7
:1055700033D0DFF84491C9F86870FEF7FFFE0646A5
:105580004E4D286810F0006F0BD0FEF7F7FE801B21
:10559000022802D90320BDE8F883286810F0006FC4
:1055A000F3D16068217A800140EA017044490860C3
:1055B000C9F86880FEF7E2FE0646286810F0006F22
:1055C0000BD1FEF7DBFE801B022802D90320BDE8C9
:1055D000F883286810F0006FF3D0207810F0020FE5
:1055E0005CD03848016841F080510160006800F0EB
:1055F00080500090344D286840F480702860FEF799
:10560000BDFE0646286810F4807F0BD1FEF7B6FE7B
:10561000801B022802D90320BDE8F883286810F413
:10562000807FF3D0294D286800F4407028B3A18909
:1056300001F44071814220D0286820F44070244950
:10564000C1F800800F602860286810F0010F14D0A6
:10565000FEF794FE0646286810F0020F0DD141F2C5
:105660008837FEF78BFE801BB84202D90320BDE8C5
:10567000F883286810F0020FF3D0E0684FF440710F
:1056800031EA000213490CD0086820F4F8100860D1
:105690002868A189C1F30B01084328600020BDE8F8
:1056A000F8830A6820F4407022F4F81220F0704069
:1056B00010430860ECE70000000047420038024059
:1056C0008438024040380240007000407038024088
:1056D000400E4742083802402DE9F04704460D4687
:1056E000002C13D0DFF85491D9F80000EFB200F08D
:1056F0000700A8420DD289F80070D9F8000000F028
:105700000700A84205D00120BDE8F0870120BDE8D0
:10571000F08720684A4E10F0020F14D010F0040FEA
:1057200003D0306840F4E0503060207810F0080F6B
:1057300003D0306840F4604030603068A16820F0E9
:10574000F00008433060207810F0010F3ED0606810
:105750003C49012808D002280DD003280BD0096845
:1057600011F0020F28D00AE0096811F4003F06D1B9
:105770000120BDE8F087096811F0007F19D0316879
:1057800021F0030108433060FEF7F8FD80463068E1
:10579000616800F00C00B0EB810F17D041F2883A3D
:1057A000FEF7ECFDA0EB0800504508D90320BDE84A
:1057B000F0870120BDE8F0870120BDE8F087306860
:1057C000616800F00C00B0EB810FE9D1D9F800005E
:1057D00000F00700A8420AD989F80070D9F8000043
:1057E00000F00700A84202D00120BDE8F087207831
:1057F00010F0040F05D03068E16820F4E050084351
:105800003060207810F0080F06D03068216920F44D
:10581000604040EAC100306000F042F831680A4A56
:10582000C1F30311515CC84008490860084800688A
:10583000FFF7CAF90020BDE8F0870000003C0240F5
:105840000838024000380240243901083C0000209A
:10585000D401002001480068704700003C0000208F
:1058600000B5FFF7F7FF04490968044AC1F3822134
:10587000515CC84000BD00000838024034390108BE
:1058800000B5FFF7E7FF04490968044AC1F3423154
:10589000515CC84000BD000008380240343901089E
:1058A00010B51748006810F00C01164816D0164BBA
:1058B000042912D0082911D1144C216801F03F02AB
:1058C000216811F4800F0AD02068C0F38810A0FB73
:1058D00003010023FAF7BEFD09E0184610BD216858
:1058E0000023C1F38811A1FB0001FAF7B3FD216881
:1058F000C1F30141491C4900B0FBF1F010BD0000AB
:10590000083802400024F400001BB70004380240AD
:105910002DE9F84F0446002C12D02078FB4E10F0F1
:10592000010FA6F1040563D0301D016801F00C01E0
:1059300004290CD0006800F00C00082803D010E007
:105940000120BDE8F88F306810F4800F09D0286876
:1059500010F4003F4CD06068002849D10120BDE818
:10596000F88F6068B0F5803F14D0B0F5A02F16D046
:10597000286820F480302860286820F4802028607F
:10598000606810B3FEF7FAFC0746286810F4003F81
:105990000ED02DE0286840F480302860F0E72868B9
:1059A00040F480202860286840F480302860E7E7D1
:1059B000FEF7E4FCC01B642802D90320BDE8F88F81
:1059C000286810F4003FF3D012E0FEF7D7FC07463A
:1059D000286810F4003F0BD0FEF7D0FCC01B6428F1
:1059E00002D90320BDE8F88F286810F4003FF3D1F6
:1059F0002078C74F10F0020F4FF0000957D0C5486C
:105A0000016811F00C0F14D0006800F00C00082899
:105A100003D1306810F4800F0BD0E06880B3012010
:105A20003860FEF7ABFC8046286810F0020F12D0F9
:105A30001EE0286810F0020F05D0E068012802D0AF
:105A40000120BDE8F88F2868216920F0F80040EABD
:105A5000C10028602BE0FEF791FCA0EB08000228B3
:105A600002D90320BDE8F88F286810F0020FF2D0A9
:105A70002868216920F0F80040EAC100286016E09B
:105A8000FFE7C7F80090FEF779FC8046286810F021
:105A9000020F0CD0FEF772FCA0EB0800022802D91E
:105AA0000320BDE8F88F286810F0020FF2D12078AB
:105AB00010F0080F35D09848DFF860A26169C1B1D5
:105AC00001210160FEF75AFC8046DAF8000010F070
:105AD000020F26D1FEF752FCA0EB0800022802D9E3
